{
  "_format": "hh-sol-artifact-1",
  "contractName": "DataTokenization",
  "sourceName": "contracts/DataTokenization.sol",
  "abi": [
    {
      "inputs": [],
      "stateMutability": "nonpayable",
      "type": "constructor"
    },
    {
      "anonymous": false,
      "inputs": [
        {
          "indexed": true,
          "internalType": "uint256",
          "name": "tokenId",
          "type": "uint256"
        },
        {
          "indexed": true,
          "internalType": "address",
          "name": "owner",
          "type": "address"
        },
        {
          "indexed": false,
          "internalType": "string",
          "name": "originalDataHash",
          "type": "string"
        },
        {
          "indexed": false,
          "internalType": "string",
          "name": "token",
          "type": "string"
        },
        {
          "indexed": false,
          "internalType": "string",
          "name": "dataType",
          "type": "string"
        },
        {
          "indexed": false,
          "internalType": "uint256",
          "name": "timestamp",
          "type": "uint256"
        }
      ],
      "name": "DataTokenized",
      "type": "event"
    },
    {
      "anonymous": false,
      "inputs": [
        {
          "indexed": true,
          "internalType": "uint256",
          "name": "keyId",
          "type": "uint256"
        },
        {
          "indexed": false,
          "internalType": "string",
          "name": "keyHash",
          "type": "string"
        },
        {
          "indexed": false,
          "internalType": "string",
          "name": "algorithm",
          "type": "string"
        },
        {
          "indexed": true,
          "internalType": "address",
          "name": "createdBy",
          "type": "address"
        },
        {
          "indexed": false,
          "internalType": "uint256",
          "name": "timestamp",
          "type": "uint256"
        }
      ],
      "name": "EncryptionKeyCreated",
      "type": "event"
    },
    {
      "anonymous": false,
      "inputs": [
        {
          "indexed": true,
          "internalType": "uint256",
          "name": "keyId",
          "type": "uint256"
        },
        {
          "indexed": true,
          "internalType": "address",
          "name": "revokedBy",
          "type": "address"
        },
        {
          "indexed": false,
          "internalType": "uint256",
          "name": "timestamp",
          "type": "uint256"
        }
      ],
      "name": "EncryptionKeyRevoked",
      "type": "event"
    },
    {
      "anonymous": false,
      "inputs": [
        {
          "indexed": true,
          "internalType": "address",
          "name": "previousOwner",
          "type": "address"
        },
        {
          "indexed": true,
          "internalType": "address",
          "name": "newOwner",
          "type": "address"
        }
      ],
      "name": "OwnershipTransferred",
      "type": "event"
    },
    {
      "anonymous": false,
      "inputs": [
        {
          "indexed": true,
          "internalType": "uint256",
          "name": "tokenId",
          "type": "uint256"
        },
        {
          "indexed": true,
          "internalType": "address",
          "name": "owner",
          "type": "address"
        },
        {
          "indexed": false,
          "internalType": "uint256",
          "name": "timestamp",
          "type": "uint256"
        }
      ],
      "name": "TokenRevoked",
      "type": "event"
    },
    {
      "anonymous": false,
      "inputs": [
        {
          "indexed": false,
          "internalType": "string",
          "name": "token",
          "type": "string"
        },
        {
          "indexed": false,
          "internalType": "bool",
          "name": "isValid",
          "type": "bool"
        },
        {
          "indexed": false,
          "internalType": "uint256",
          "name": "timestamp",
          "type": "uint256"
        }
      ],
      "name": "TokenValidated",
      "type": "event"
    },
    {
      "inputs": [
        {
          "internalType": "string",
          "name": "keyHash",
          "type": "string"
        },
        {
          "internalType": "string",
          "name": "algorithm",
          "type": "string"
        }
      ],
      "name": "createEncryptionKey",
      "outputs": [],
      "stateMutability": "nonpayable",
      "type": "function"
    },
    {
      "inputs": [
        {
          "internalType": "uint256",
          "name": "",
          "type": "uint256"
        }
      ],
      "name": "encryptionKeys",
      "outputs": [
        {
          "internalType": "string",
          "name": "keyHash",
          "type": "string"
        },
        {
          "internalType": "string",
          "name": "algorithm",
          "type": "string"
        },
        {
          "internalType": "uint256",
          "name": "timestamp",
          "type": "uint256"
        },
        {
          "internalType": "bool",
          "name": "isActive",
          "type": "bool"
        },
        {
          "internalType": "address",
          "name": "createdBy",
          "type": "address"
        }
      ],
      "stateMutability": "view",
      "type": "function"
    },
    {
      "inputs": [],
      "name": "getActiveTokensCount",
      "outputs": [
        {
          "internalType": "uint256",
          "name": "",
          "type": "uint256"
        }
      ],
      "stateMutability": "view",
      "type": "function"
    },
    {
      "inputs": [],
      "name": "getContractStats",
      "outputs": [
        {
          "internalType": "uint256",
          "name": "totalTokens",
          "type": "uint256"
        },
        {
          "internalType": "uint256",
          "name": "totalKeys",
          "type": "uint256"
        }
      ],
      "stateMutability": "view",
      "type": "function"
    },
    {
      "inputs": [
        {
          "internalType": "uint256",
          "name": "keyId",
          "type": "uint256"
        }
      ],
      "name": "getEncryptionKey",
      "outputs": [
        {
          "components": [
            {
              "internalType": "string",
              "name": "keyHash",
              "type": "string"
            },
            {
              "internalType": "string",
              "name": "algorithm",
              "type": "string"
            },
            {
              "internalType": "uint256",
              "name": "timestamp",
              "type": "uint256"
            },
            {
              "internalType": "bool",
              "name": "isActive",
              "type": "bool"
            },
            {
              "internalType": "address",
              "name": "createdBy",
              "type": "address"
            }
          ],
          "internalType": "struct DataTokenization.EncryptionKey",
          "name": "",
          "type": "tuple"
        }
      ],
      "stateMutability": "view",
      "type": "function"
    },
    {
      "inputs": [
        {
          "internalType": "string",
          "name": "originalDataHash",
          "type": "string"
        }
      ],
      "name": "getTokenizedDataByHash",
      "outputs": [
        {
          "components": [
            {
              "internalType": "string",
              "name": "originalDataHash",
              "type": "string"
            },
            {
              "internalType": "string",
              "name": "token",
              "type": "string"
            },
            {
              "internalType": "string",
              "name": "encryptionKeyHash",
              "type": "string"
            },
            {
              "internalType": "uint256",
              "name": "timestamp",
              "type": "uint256"
            },
            {
              "internalType": "address",
              "name": "owner",
              "type": "address"
            },
            {
              "internalType": "bool",
              "name": "isActive",
              "type": "bool"
            },
            {
              "internalType": "string",
              "name": "dataType",
              "type": "string"
            },
            {
              "internalType": "uint256",
              "name": "expiryTime",
              "type": "uint256"
            }
          ],
          "internalType": "struct DataTokenization.TokenizedData",
          "name": "",
          "type": "tuple"
        }
      ],
      "stateMutability": "view",
      "type": "function"
    },
    {
      "inputs": [
        {
          "internalType": "string",
          "name": "token",
          "type": "string"
        }
      ],
      "name": "getTokenizedDataByToken",
      "outputs": [
        {
          "components": [
            {
              "internalType": "string",
              "name": "originalDataHash",
              "type": "string"
            },
            {
              "internalType": "string",
              "name": "token",
              "type": "string"
            },
            {
              "internalType": "string",
              "name": "encryptionKeyHash",
              "type": "string"
            },
            {
              "internalType": "uint256",
              "name": "timestamp",
              "type": "uint256"
            },
            {
              "internalType": "address",
              "name": "owner",
              "type": "address"
            },
            {
              "internalType": "bool",
              "name": "isActive",
              "type": "bool"
            },
            {
              "internalType": "string",
              "name": "dataType",
              "type": "string"
            },
            {
              "internalType": "uint256",
              "name": "expiryTime",
              "type": "uint256"
            }
          ],
          "internalType": "struct DataTokenization.TokenizedData",
          "name": "",
          "type": "tuple"
        }
      ],
      "stateMutability": "view",
      "type": "function"
    },
    {
      "inputs": [
        {
          "internalType": "address",
          "name": "userAddress",
          "type": "address"
        }
      ],
      "name": "getUserTokens",
      "outputs": [
        {
          "internalType": "uint256[]",
          "name": "",
          "type": "uint256[]"
        }
      ],
      "stateMutability": "view",
      "type": "function"
    },
    {
      "inputs": [
        {
          "internalType": "string",
          "name": "",
          "type": "string"
        }
      ],
      "name": "hashToTokenId",
      "outputs": [
        {
          "internalType": "uint256",
          "name": "",
          "type": "uint256"
        }
      ],
      "stateMutability": "view",
      "type": "function"
    },
    {
      "inputs": [
        {
          "internalType": "string",
          "name": "token",
          "type": "string"
        }
      ],
      "name": "isTokenActive",
      "outputs": [
        {
          "internalType": "bool",
          "name": "",
          "type": "bool"
        }
      ],
      "stateMutability": "view",
      "type": "function"
    },
    {
      "inputs": [],
      "name": "owner",
      "outputs": [
        {
          "internalType": "address",
          "name": "",
          "type": "address"
        }
      ],
      "stateMutability": "view",
      "type": "function"
    },
    {
      "inputs": [],
      "name": "renounceOwnership",
      "outputs": [],
      "stateMutability": "nonpayable",
      "type": "function"
    },
    {
      "inputs": [
        {
          "internalType": "uint256",
          "name": "keyId",
          "type": "uint256"
        }
      ],
      "name": "revokeEncryptionKey",
      "outputs": [],
      "stateMutability": "nonpayable",
      "type": "function"
    },
    {
      "inputs": [
        {
          "internalType": "uint256",
          "name": "tokenId",
          "type": "uint256"
        }
      ],
      "name": "revokeToken",
      "outputs": [],
      "stateMutability": "nonpayable",
      "type": "function"
    },
    {
      "inputs": [
        {
          "internalType": "string",
          "name": "",
          "type": "string"
        }
      ],
      "name": "tokenToDataId",
      "outputs": [
        {
          "internalType": "uint256",
          "name": "",
          "type": "uint256"
        }
      ],
      "stateMutability": "view",
      "type": "function"
    },
    {
      "inputs": [
        {
          "internalType": "string",
          "name": "originalDataHash",
          "type": "string"
        },
        {
          "internalType": "string",
          "name": "token",
          "type": "string"
        },
        {
          "internalType": "string",
          "name": "encryptionKeyHash",
          "type": "string"
        },
        {
          "internalType": "string",
          "name": "dataType",
          "type": "string"
        },
        {
          "internalType": "uint256",
          "name": "durationInSeconds",
          "type": "uint256"
        }
      ],
      "name": "tokenizeData",
      "outputs": [],
      "stateMutability": "nonpayable",
      "type": "function"
    },
    {
      "inputs": [
        {
          "internalType": "uint256",
          "name": "",
          "type": "uint256"
        }
      ],
      "name": "tokenizedData",
      "outputs": [
        {
          "internalType": "string",
          "name": "originalDataHash",
          "type": "string"
        },
        {
          "internalType": "string",
          "name": "token",
          "type": "string"
        },
        {
          "internalType": "string",
          "name": "encryptionKeyHash",
          "type": "string"
        },
        {
          "internalType": "uint256",
          "name": "timestamp",
          "type": "uint256"
        },
        {
          "internalType": "address",
          "name": "owner",
          "type": "address"
        },
        {
          "internalType": "bool",
          "name": "isActive",
          "type": "bool"
        },
        {
          "internalType": "string",
          "name": "dataType",
          "type": "string"
        },
        {
          "internalType": "uint256",
          "name": "expiryTime",
          "type": "uint256"
        }
      ],
      "stateMutability": "view",
      "type": "function"
    },
    {
      "inputs": [
        {
          "internalType": "address",
          "name": "newOwner",
          "type": "address"
        }
      ],
      "name": "transferOwnership",
      "outputs": [],
      "stateMutability": "nonpayable",
      "type": "function"
    },
    {
      "inputs": [
        {
          "internalType": "string",
          "name": "",
          "type": "string"
        }
      ],
      "name": "usedTokens",
      "outputs": [
        {
          "internalType": "bool",
          "name": "",
          "type": "bool"
        }
      ],
      "stateMutability": "view",
      "type": "function"
    },
    {
      "inputs": [
        {
          "internalType": "address",
          "name": "",
          "type": "address"
        },
        {
          "internalType": "uint256",
          "name": "",
          "type": "uint256"
        }
      ],
      "name": "userTokens",
      "outputs": [
        {
          "internalType": "uint256",
          "name": "",
          "type": "uint256"
        }
      ],
      "stateMutability": "view",
      "type": "function"
    },
    {
      "inputs": [
        {
          "internalType": "string",
          "name": "token",
          "type": "string"
        }
      ],
      "name": "validateToken",
      "outputs": [
        {
          "internalType": "bool",
          "name": "isValid",
          "type": "bool"
        },
        {
          "internalType": "uint256",
          "name": "tokenId",
          "type": "uint256"
        }
      ],
      "stateMutability": "view",
      "type": "function"
    }
  ],
  "bytecode": "0x608060405234801561001057600080fd5b5061001a3361003f565b6001805561002c600280546001019055565b61003a600380546001019055565b61008f565b600080546001600160a01b038381166001600160a01b0319831681178455604051919092169283917f8be0079c531659141344cd1fd0a4f28419497f9722a3daafe3b4186f6b6457e09190a35050565b6123e8806200009f6000396000f3fe608060405234801561001057600080fd5b50600436106101375760003560e01c8063abdd6289116100b8578063d50cdedc1161007c578063d50cdedc14610306578063dfe6b5d614610319578063f1b94ed914610336578063f2fde38b14610349578063f6d62d7e1461035c578063f9f411d81461038757600080fd5b8063abdd628914610272578063aed725401461029c578063b1f61401146102c0578063b788735f146102d3578063c3e64b3c146102f357600080fd5b8063715018a6116100ff578063715018a6146101e95780637dc9e79b146101f35780638d62b73a146102065780638da5cb5b1461021957806398e26c1b1461023457600080fd5b806316dfb8fd1461013c57806327a4d395146101575780634cef2f0914610182578063519dc8d2146101a25780635b4cd841146101c2575b600080fd5b61014461039a565b6040519081526020015b60405180910390f35b610144610165366004611c9c565b805160208183018101805160068252928201919093012091525481565b610195610190366004611c9c565b61040e565b60405161014e9190611d21565b6101b56101b0366004611e01565b610752565b60405161014e9190611e23565b6101d56101d0366004611e67565b6107be565b60405161014e989796959493929190611e80565b6101f1610a31565b005b6101f1610201366004611e67565b610a45565b6101f1610214366004611e67565b610bd4565b6000546040516001600160a01b03909116815260200161014e565b610262610242366004611c9c565b805160208183018101805160088252928201919093012091525460ff1681565b604051901515815260200161014e565b610285610280366004611c9c565b610cdb565b60408051921515835260208301919091520161014e565b6102af6102aa366004611e67565b610d69565b60405161014e959493929190611f04565b6101f16102ce366004611f50565b610eb4565b6102e66102e1366004611e67565b611060565b60405161014e9190611fb4565b610262610301366004611c9c565b61125b565b6101f1610314366004612022565b6112e7565b6103216116a6565b6040805192835260208301919091520161014e565b610195610344366004611c9c565b6116db565b6101f1610357366004611e01565b6119fc565b61014461036a366004611c9c565b805160208183018101805160098252928201919093012091525481565b6101446103953660046120d7565b611a75565b60008060015b6002548110156104085760008181526004602081905260409091200154600160a01b900460ff1680156103e3575060008181526004602052604090206006015442105b156103f657816103f281612117565b9250505b8061040081612117565b9150506103a0565b50919050565b610416611ba9565b816008816040516104279190612130565b9081526040519081900360200190205460ff166104825760405162461bcd60e51b8152602060048201526014602482015273151bdad95b88191bd95cc81b9bdd08195e1a5cdd60621b60448201526064015b60405180910390fd5b60006006846040516104949190612130565b908152602001604051809103902054905060046000828152602001908152602001600020604051806101000160405290816000820180546104d49061214c565b80601f01602080910402602001604051908101604052809291908181526020018280546105009061214c565b801561054d5780601f106105225761010080835404028352916020019161054d565b820191906000526020600020905b81548152906001019060200180831161053057829003601f168201915b505050505081526020016001820180546105669061214c565b80601f01602080910402602001604051908101604052809291908181526020018280546105929061214c565b80156105df5780601f106105b4576101008083540402835291602001916105df565b820191906000526020600020905b8154815290600101906020018083116105c257829003601f168201915b505050505081526020016002820180546105f89061214c565b80601f01602080910402602001604051908101604052809291908181526020018280546106249061214c565b80156106715780601f1061064657610100808354040283529160200191610671565b820191906000526020600020905b81548152906001019060200180831161065457829003601f168201915b50505091835250506003820154602082015260048201546001600160a01b0381166040830152600160a01b900460ff16151560608201526005820180546080909201916106bd9061214c565b80601f01602080910402602001604051908101604052809291908181526020018280546106e99061214c565b80156107365780601f1061070b57610100808354040283529160200191610736565b820191906000526020600020905b81548152906001019060200180831161071957829003601f168201915b5050505050815260200160068201548152505092505050919050565b6001600160a01b0381166000908152600760209081526040918290208054835181840281018401909452808452606093928301828280156107b257602002820191906000526020600020905b81548152602001906001019080831161079e575b50505050509050919050565b6004602052600090815260409020805481906107d99061214c565b80601f01602080910402602001604051908101604052809291908181526020018280546108059061214c565b80156108525780601f1061082757610100808354040283529160200191610852565b820191906000526020600020905b81548152906001019060200180831161083557829003601f168201915b5050505050908060010180546108679061214c565b80601f01602080910402602001604051908101604052809291908181526020018280546108939061214c565b80156108e05780601f106108b5576101008083540402835291602001916108e0565b820191906000526020600020905b8154815290600101906020018083116108c357829003601f168201915b5050505050908060020180546108f59061214c565b80601f01602080910402602001604051908101604052809291908181526020018280546109219061214c565b801561096e5780601f106109435761010080835404028352916020019161096e565b820191906000526020600020905b81548152906001019060200180831161095157829003601f168201915b5050505060038301546004840154600585018054949592946001600160a01b0383169450600160a01b90920460ff1692916109a89061214c565b80601f01602080910402602001604051908101604052809291908181526020018280546109d49061214c565b8015610a215780601f106109f657610100808354040283529160200191610a21565b820191906000526020600020905b815481529060010190602001808311610a0457829003601f168201915b5050505050908060060154905088565b610a39611aa6565b610a436000611b00565b565b80600081118015610a5857506002548111155b610a975760405162461bcd60e51b815260206004820152601060248201526f125b9d985b1a59081d1bdad95b88125160821b6044820152606401610479565b600081815260046020819052604090912001546001600160a01b03163314610af35760405162461bcd60e51b815260206004820152600f60248201526e2737ba103a37b5b2b71037bbb732b960891b6044820152606401610479565b600082815260046020819052604090912090810154600160a01b900460ff16610b565760405162461bcd60e51b8152602060048201526015602482015274151bdad95b88185b1c9958591e481c995d9bdad959605a1b6044820152606401610479565b60048101805460ff60a01b19169055604051600090600890610b7c906001850190612180565b90815260405160209181900382018120805460ff191693151593909317909255428252339185917f5c7cab5bcfc3e80654dfbd80032b4dcc884ebf15dab0e41d1964a7948151eea791015b60405180910390a3505050565b610bdc611aa6565b600081118015610bed575060035481105b610c2a5760405162461bcd60e51b815260206004820152600e60248201526d125b9d985b1a59081ad95e48125160921b6044820152606401610479565b60008181526005602052604090206003015460ff16610c815760405162461bcd60e51b815260206004820152601360248201527212d95e48185b1c9958591e481c995d9bdad959606a1b6044820152606401610479565b60008181526005602052604090819020600301805460ff1916905551339082907ff5dca0f00824c58862e25c373e280c6dc94b6bc9210497c27cccbe360118922690610cd09042815260200190565b60405180910390a350565b600080600883604051610cee9190612130565b9081526040519081900360200190205460ff16610d1057506000928392509050565b600683604051610d209190612130565b90815260408051602092819003830190205460008181526004938490529190912091820154909250600160a01b900460ff168015610d615750428160060154115b925050915091565b600560205260009081526040902080548190610d849061214c565b80601f0160208091040260200160405190810160405280929190818152602001828054610db09061214c565b8015610dfd5780601f10610dd257610100808354040283529160200191610dfd565b820191906000526020600020905b815481529060010190602001808311610de057829003601f168201915b505050505090806001018054610e129061214c565b80601f0160208091040260200160405190810160405280929190818152602001828054610e3e9061214c565b8015610e8b5780601f10610e6057610100808354040283529160200191610e8b565b820191906000526020600020905b815481529060010190602001808311610e6e57829003601f168201915b50505050600283015460039093015491929160ff8116915061010090046001600160a01b031685565b610ebc611aa6565b6000825111610f0d5760405162461bcd60e51b815260206004820152601860248201527f4b657920686173682063616e6e6f7420626520656d70747900000000000000006044820152606401610479565b6000815111610f5e5760405162461bcd60e51b815260206004820152601960248201527f416c676f726974686d2063616e6e6f7420626520656d707479000000000000006044820152606401610479565b6000610f6960035490565b6040805160a08101825285815260208082018690524282840152600160608301523360808301526000848152600590915291909120815192935090918190610fb19082612245565b5060208201516001820190610fc69082612245565b50604082015160028201556060820151600391820180546080909401516001600160a01b031661010002610100600160a81b0319921515929092166001600160a81b031990941693909317179091556110229080546001019055565b336001600160a01b0316817f4dd1583b389106847cc8a27c615bf6e0fc0c296ba2c79a7a1ff0afeadd520125858542604051610bc793929190612305565b61109d6040518060a0016040528060608152602001606081526020016000815260200160001515815260200160006001600160a01b031681525090565b6000821180156110ae575060035482105b6110eb5760405162461bcd60e51b815260206004820152600e60248201526d125b9d985b1a59081ad95e48125160921b6044820152606401610479565b60008281526005602052604090819020815160a081019092528054829082906111139061214c565b80601f016020809104026020016040519081016040528092919081815260200182805461113f9061214c565b801561118c5780601f106111615761010080835404028352916020019161118c565b820191906000526020600020905b81548152906001019060200180831161116f57829003601f168201915b505050505081526020016001820180546111a59061214c565b80601f01602080910402602001604051908101604052809291908181526020018280546111d19061214c565b801561121e5780601f106111f35761010080835404028352916020019161121e565b820191906000526020600020905b81548152906001019060200180831161120157829003601f168201915b50505091835250506002820154602082015260039091015460ff81161515604083015261010090046001600160a01b031660609091015292915050565b600060088260405161126d9190612130565b9081526040519081900360200190205460ff1661128c57506000919050565b600060068360405161129e9190612130565b90815260408051602092819003830190205460008181526004938490529190912091820154909250600160a01b900460ff1680156112df5750428160060154115b949350505050565b6112ef611b50565b60008551116113405760405162461bcd60e51b815260206004820152601960248201527f4461746120686173682063616e6e6f7420626520656d707479000000000000006044820152606401610479565b60008451116113895760405162461bcd60e51b8152602060048201526015602482015274546f6b656e2063616e6e6f7420626520656d70747960581b6044820152606401610479565b60008351116113e65760405162461bcd60e51b815260206004820152602360248201527f456e6372797074696f6e206b657920686173682063616e6e6f7420626520656d60448201526270747960e81b6064820152608401610479565b6008846040516113f69190612130565b9081526040519081900360200190205460ff161561144d5760405162461bcd60e51b8152602060048201526014602482015273546f6b656e20616c72656164792065786973747360601b6044820152606401610479565b6000811161149d5760405162461bcd60e51b815260206004820152601960248201527f4475726174696f6e206d75737420626520706f736974697665000000000000006044820152606401610479565b60006114a860025490565b9050604051806101000160405280878152602001868152602001858152602001428152602001336001600160a01b0316815260200160011515815260200184815260200183426114f8919061233b565b90526000828152600460205260409020815181906115169082612245565b506020820151600182019061152b9082612245565b50604082015160028201906115409082612245565b5060608201516003820155608082015160048201805460a08501511515600160a01b026001600160a81b03199091166001600160a01b039093169290921791909117905560c082015160058201906115989082612245565b5060e08201518160060155905050806006866040516115b79190612130565b9081526040805191829003602090810183209390935533600090815260078452908120805460018181018355918352939091209092018390556008906115fe908890612130565b908152604051908190036020018120805492151560ff1990931692909217909155819060099061162f908990612130565b9081526040519081900360200190205561164d600280546001019055565b336001600160a01b0316817fb9dbf72b564db6b1fdfa68a20967eb1623f92f57e47f8df7f6a422c87adbfb2b8888874260405161168d9493929190612354565b60405180910390a35061169f60018055565b5050505050565b60008060016116b460025490565b6116be919061239f565b60016116c960035490565b6116d3919061239f565b915091509091565b6116e3611ba9565b60006009836040516116f59190612130565b9081526020016040518091039020549050600081116117565760405162461bcd60e51b815260206004820152601c60248201527f4e6f20746f6b656e20666f756e6420666f7220746869732068617368000000006044820152606401610479565b600081815260046020526040908190208151610100810190925280548290829061177f9061214c565b80601f01602080910402602001604051908101604052809291908181526020018280546117ab9061214c565b80156117f85780601f106117cd576101008083540402835291602001916117f8565b820191906000526020600020905b8154815290600101906020018083116117db57829003601f168201915b505050505081526020016001820180546118119061214c565b80601f016020809104026020016040519081016040528092919081815260200182805461183d9061214c565b801561188a5780601f1061185f5761010080835404028352916020019161188a565b820191906000526020600020905b81548152906001019060200180831161186d57829003601f168201915b505050505081526020016002820180546118a39061214c565b80601f01602080910402602001604051908101604052809291908181526020018280546118cf9061214c565b801561191c5780601f106118f15761010080835404028352916020019161191c565b820191906000526020600020905b8154815290600101906020018083116118ff57829003601f168201915b50505091835250506003820154602082015260048201546001600160a01b0381166040830152600160a01b900460ff16151560608201526005820180546080909201916119689061214c565b80601f01602080910402602001604051908101604052809291908181526020018280546119949061214c565b80156119e15780601f106119b6576101008083540402835291602001916119e1565b820191906000526020600020905b8154815290600101906020018083116119c457829003601f168201915b50505050508152602001600682015481525050915050919050565b611a04611aa6565b6001600160a01b038116611a695760405162461bcd60e51b815260206004820152602660248201527f4f776e61626c653a206e6577206f776e657220697320746865207a65726f206160448201526564647265737360d01b6064820152608401610479565b611a7281611b00565b50565b60076020528160005260406000208181548110611a9157600080fd5b90600052602060002001600091509150505481565b6000546001600160a01b03163314610a435760405162461bcd60e51b815260206004820181905260248201527f4f776e61626c653a2063616c6c6572206973206e6f7420746865206f776e65726044820152606401610479565b600080546001600160a01b038381166001600160a01b0319831681178455604051919092169283917f8be0079c531659141344cd1fd0a4f28419497f9722a3daafe3b4186f6b6457e09190a35050565b600260015403611ba25760405162461bcd60e51b815260206004820152601f60248201527f5265656e7472616e637947756172643a207265656e7472616e742063616c6c006044820152606401610479565b6002600155565b6040518061010001604052806060815260200160608152602001606081526020016000815260200160006001600160a01b0316815260200160001515815260200160608152602001600081525090565b634e487b7160e01b600052604160045260246000fd5b600082601f830112611c2057600080fd5b813567ffffffffffffffff80821115611c3b57611c3b611bf9565b604051601f8301601f19908116603f01168101908282118183101715611c6357611c63611bf9565b81604052838152866020858801011115611c7c57600080fd5b836020870160208301376000602085830101528094505050505092915050565b600060208284031215611cae57600080fd5b813567ffffffffffffffff811115611cc557600080fd5b6112df84828501611c0f565b60005b83811015611cec578181015183820152602001611cd4565b50506000910152565b60008151808452611d0d816020860160208601611cd1565b601f01601f19169290920160200192915050565b6020815260008251610100806020850152611d40610120850183611cf5565b91506020850151601f1980868503016040870152611d5e8483611cf5565b93506040870151915080868503016060870152611d7b8483611cf5565b93506060870151608087015260808701519150611da360a08701836001600160a01b03169052565b60a087015180151560c0880152915060c08701519150808685030160e087015250611dce8382611cf5565b92505060e085015181850152508091505092915050565b80356001600160a01b0381168114611dfc57600080fd5b919050565b600060208284031215611e1357600080fd5b611e1c82611de5565b9392505050565b6020808252825182820181905260009190848201906040850190845b81811015611e5b57835183529284019291840191600101611e3f565b50909695505050505050565b600060208284031215611e7957600080fd5b5035919050565b6000610100808352611e948184018c611cf5565b90508281036020840152611ea8818b611cf5565b90508281036040840152611ebc818a611cf5565b606084018990526001600160a01b038816608085015286151560a085015283810360c08501529050611eee8186611cf5565b9150508260e08301529998505050505050505050565b60a081526000611f1760a0830188611cf5565b8281036020840152611f298188611cf5565b6040840196909652505091151560608301526001600160a01b031660809091015292915050565b60008060408385031215611f6357600080fd5b823567ffffffffffffffff80821115611f7b57600080fd5b611f8786838701611c0f565b93506020850135915080821115611f9d57600080fd5b50611faa85828601611c0f565b9150509250929050565b602081526000825160a06020840152611fd060c0840182611cf5565b90506020840151601f19848303016040850152611fed8282611cf5565b9150506040840151606084015260608401511515608084015260018060a01b0360808501511660a08401528091505092915050565b600080600080600060a0868803121561203a57600080fd5b853567ffffffffffffffff8082111561205257600080fd5b61205e89838a01611c0f565b9650602088013591508082111561207457600080fd5b61208089838a01611c0f565b9550604088013591508082111561209657600080fd5b6120a289838a01611c0f565b945060608801359150808211156120b857600080fd5b506120c588828901611c0f565b95989497509295608001359392505050565b600080604083850312156120ea57600080fd5b6120f383611de5565b946020939093013593505050565b634e487b7160e01b600052601160045260246000fd5b60006001820161212957612129612101565b5060010190565b60008251612142818460208701611cd1565b9190910192915050565b600181811c9082168061216057607f821691505b60208210810361040857634e487b7160e01b600052602260045260246000fd5b600080835461218e8161214c565b600182811680156121a657600181146121bb576121ea565b60ff19841687528215158302870194506121ea565b8760005260208060002060005b858110156121e15781548a8201529084019082016121c8565b50505082870194505b50929695505050505050565b601f82111561224057600081815260208120601f850160051c8101602086101561221d5750805b601f850160051c820191505b8181101561223c57828155600101612229565b5050505b505050565b815167ffffffffffffffff81111561225f5761225f611bf9565b6122738161226d845461214c565b846121f6565b602080601f8311600181146122a857600084156122905750858301515b600019600386901b1c1916600185901b17855561223c565b600085815260208120601f198616915b828110156122d7578886015182559484019460019091019084016122b8565b50858210156122f55787850151600019600388901b60f8161c191681555b5050505050600190811b01905550565b6060815260006123186060830186611cf5565b828103602084015261232a8186611cf5565b915050826040830152949350505050565b8082018082111561234e5761234e612101565b92915050565b6080815260006123676080830187611cf5565b82810360208401526123798187611cf5565b9050828103604084015261238d8186611cf5565b91505082606083015295945050505050565b8181038181111561234e5761234e61210156fea2646970667358221220c5d027ac9d8c61f7583107c185f36cd94f66601284627770fecbc01bcf813c7164736f6c63430008130033",
  "linkReferences": {},
  "deployedLinkReferences": {}
}