{
  "_format": "hh-sol-artifact-1",
  "contractName": "ComplianceManager",
  "sourceName": "contracts/ComplianceManager.sol",
  "abi": [
    {
      "inputs": [],
      "stateMutability": "nonpayable",
      "type": "constructor"
    },
    {
      "anonymous": false,
      "inputs": [
        {
          "indexed": true,
          "internalType": "uint256",
          "name": "recordId",
          "type": "uint256"
        },
        {
          "indexed": true,
          "internalType": "address",
          "name": "userAddress",
          "type": "address"
        },
        {
          "indexed": false,
          "internalType": "string",
          "name": "regulation",
          "type": "string"
        },
        {
          "indexed": false,
          "internalType": "string",
          "name": "complianceType",
          "type": "string"
        },
        {
          "indexed": false,
          "internalType": "bool",
          "name": "isCompliant",
          "type": "bool"
        },
        {
          "indexed": false,
          "internalType": "string",
          "name": "region",
          "type": "string"
        },
        {
          "indexed": false,
          "internalType": "uint256",
          "name": "timestamp",
          "type": "uint256"
        }
      ],
      "name": "ComplianceRecorded",
      "type": "event"
    },
    {
      "anonymous": false,
      "inputs": [
        {
          "indexed": true,
          "internalType": "uint256",
          "name": "lifecycleId",
          "type": "uint256"
        },
        {
          "indexed": true,
          "internalType": "address",
          "name": "userAddress",
          "type": "address"
        },
        {
          "indexed": false,
          "internalType": "string",
          "name": "dataHash",
          "type": "string"
        },
        {
          "indexed": false,
          "internalType": "uint256",
          "name": "consentGrantedAt",
          "type": "uint256"
        },
        {
          "indexed": false,
          "internalType": "uint256",
          "name": "dataRetentionExpiry",
          "type": "uint256"
        },
        {
          "indexed": false,
          "internalType": "string",
          "name": "retentionPolicy",
          "type": "string"
        },
        {
          "indexed": false,
          "internalType": "uint256",
          "name": "timestamp",
          "type": "uint256"
        }
      ],
      "name": "ConsentLifecycleRecorded",
      "type": "event"
    },
    {
      "anonymous": false,
      "inputs": [
        {
          "indexed": true,
          "internalType": "uint256",
          "name": "residencyId",
          "type": "uint256"
        },
        {
          "indexed": false,
          "internalType": "string",
          "name": "dataHash",
          "type": "string"
        },
        {
          "indexed": false,
          "internalType": "string",
          "name": "region",
          "type": "string"
        },
        {
          "indexed": false,
          "internalType": "string",
          "name": "jurisdiction",
          "type": "string"
        },
        {
          "indexed": false,
          "internalType": "bool",
          "name": "isCompliant",
          "type": "bool"
        },
        {
          "indexed": false,
          "internalType": "uint256",
          "name": "timestamp",
          "type": "uint256"
        }
      ],
      "name": "DataResidencyRecorded",
      "type": "event"
    },
    {
      "anonymous": false,
      "inputs": [
        {
          "indexed": true,
          "internalType": "address",
          "name": "previousOwner",
          "type": "address"
        },
        {
          "indexed": true,
          "internalType": "address",
          "name": "newOwner",
          "type": "address"
        }
      ],
      "name": "OwnershipTransferred",
      "type": "event"
    },
    {
      "anonymous": false,
      "inputs": [
        {
          "indexed": false,
          "internalType": "string",
          "name": "regulation",
          "type": "string"
        },
        {
          "indexed": false,
          "internalType": "bool",
          "name": "isSupported",
          "type": "bool"
        },
        {
          "indexed": true,
          "internalType": "address",
          "name": "updatedBy",
          "type": "address"
        },
        {
          "indexed": false,
          "internalType": "uint256",
          "name": "timestamp",
          "type": "uint256"
        }
      ],
      "name": "RegulationSupported",
      "type": "event"
    },
    {
      "anonymous": false,
      "inputs": [
        {
          "indexed": true,
          "internalType": "uint256",
          "name": "reportId",
          "type": "uint256"
        },
        {
          "indexed": false,
          "internalType": "string",
          "name": "reportIdString",
          "type": "string"
        },
        {
          "indexed": false,
          "internalType": "string",
          "name": "regulation",
          "type": "string"
        },
        {
          "indexed": false,
          "internalType": "string",
          "name": "reportType",
          "type": "string"
        },
        {
          "indexed": false,
          "internalType": "string",
          "name": "reportHash",
          "type": "string"
        },
        {
          "indexed": true,
          "internalType": "address",
          "name": "submittedBy",
          "type": "address"
        },
        {
          "indexed": false,
          "internalType": "uint256",
          "name": "timestamp",
          "type": "uint256"
        }
      ],
      "name": "RegulatoryReportGenerated",
      "type": "event"
    },
    {
      "anonymous": false,
      "inputs": [
        {
          "indexed": false,
          "internalType": "string",
          "name": "dataType",
          "type": "string"
        },
        {
          "indexed": false,
          "internalType": "uint256",
          "name": "newRetentionPeriod",
          "type": "uint256"
        },
        {
          "indexed": true,
          "internalType": "address",
          "name": "updatedBy",
          "type": "address"
        },
        {
          "indexed": false,
          "internalType": "uint256",
          "name": "timestamp",
          "type": "uint256"
        }
      ],
      "name": "RetentionPolicyUpdated",
      "type": "event"
    },
    {
      "inputs": [
        {
          "internalType": "uint256",
          "name": "",
          "type": "uint256"
        }
      ],
      "name": "complianceRecords",
      "outputs": [
        {
          "internalType": "address",
          "name": "userAddress",
          "type": "address"
        },
        {
          "internalType": "string",
          "name": "regulation",
          "type": "string"
        },
        {
          "internalType": "string",
          "name": "complianceType",
          "type": "string"
        },
        {
          "internalType": "uint256",
          "name": "timestamp",
          "type": "uint256"
        },
        {
          "internalType": "bool",
          "name": "isCompliant",
          "type": "bool"
        },
        {
          "internalType": "string",
          "name": "details",
          "type": "string"
        },
        {
          "internalType": "string",
          "name": "region",
          "type": "string"
        },
        {
          "internalType": "uint256",
          "name": "expiryTime",
          "type": "uint256"
        }
      ],
      "stateMutability": "view",
      "type": "function"
    },
    {
      "inputs": [
        {
          "internalType": "uint256",
          "name": "",
          "type": "uint256"
        }
      ],
      "name": "consentLifecycles",
      "outputs": [
        {
          "internalType": "address",
          "name": "userAddress",
          "type": "address"
        },
        {
          "internalType": "string",
          "name": "dataHash",
          "type": "string"
        },
        {
          "internalType": "uint256",
          "name": "consentGrantedAt",
          "type": "uint256"
        },
        {
          "internalType": "uint256",
          "name": "consentRevokedAt",
          "type": "uint256"
        },
        {
          "internalType": "uint256",
          "name": "dataRetentionExpiry",
          "type": "uint256"
        },
        {
          "internalType": "bool",
          "name": "isRetentionCompliant",
          "type": "bool"
        },
        {
          "internalType": "string",
          "name": "retentionPolicy",
          "type": "string"
        }
      ],
      "stateMutability": "view",
      "type": "function"
    },
    {
      "inputs": [
        {
          "internalType": "uint256",
          "name": "",
          "type": "uint256"
        }
      ],
      "name": "dataResidency",
      "outputs": [
        {
          "internalType": "string",
          "name": "dataHash",
          "type": "string"
        },
        {
          "internalType": "string",
          "name": "region",
          "type": "string"
        },
        {
          "internalType": "string",
          "name": "jurisdiction",
          "type": "string"
        },
        {
          "internalType": "uint256",
          "name": "timestamp",
          "type": "uint256"
        },
        {
          "internalType": "bool",
          "name": "isCompliant",
          "type": "bool"
        },
        {
          "internalType": "string",
          "name": "complianceDetails",
          "type": "string"
        }
      ],
      "stateMutability": "view",
      "type": "function"
    },
    {
      "inputs": [
        {
          "internalType": "string",
          "name": "reportId",
          "type": "string"
        },
        {
          "internalType": "string",
          "name": "regulation",
          "type": "string"
        },
        {
          "internalType": "string",
          "name": "reportType",
          "type": "string"
        },
        {
          "internalType": "string",
          "name": "reportHash",
          "type": "string"
        }
      ],
      "name": "generateRegulatoryReport",
      "outputs": [],
      "stateMutability": "nonpayable",
      "type": "function"
    },
    {
      "inputs": [
        {
          "internalType": "uint256",
          "name": "recordId",
          "type": "uint256"
        }
      ],
      "name": "getComplianceRecord",
      "outputs": [
        {
          "components": [
            {
              "internalType": "address",
              "name": "userAddress",
              "type": "address"
            },
            {
              "internalType": "string",
              "name": "regulation",
              "type": "string"
            },
            {
              "internalType": "string",
              "name": "complianceType",
              "type": "string"
            },
            {
              "internalType": "uint256",
              "name": "timestamp",
              "type": "uint256"
            },
            {
              "internalType": "bool",
              "name": "isCompliant",
              "type": "bool"
            },
            {
              "internalType": "string",
              "name": "details",
              "type": "string"
            },
            {
              "internalType": "string",
              "name": "region",
              "type": "string"
            },
            {
              "internalType": "uint256",
              "name": "expiryTime",
              "type": "uint256"
            }
          ],
          "internalType": "struct ComplianceManager.ComplianceRecord",
          "name": "",
          "type": "tuple"
        }
      ],
      "stateMutability": "view",
      "type": "function"
    },
    {
      "inputs": [
        {
          "internalType": "uint256",
          "name": "lifecycleId",
          "type": "uint256"
        }
      ],
      "name": "getConsentLifecycle",
      "outputs": [
        {
          "components": [
            {
              "internalType": "address",
              "name": "userAddress",
              "type": "address"
            },
            {
              "internalType": "string",
              "name": "dataHash",
              "type": "string"
            },
            {
              "internalType": "uint256",
              "name": "consentGrantedAt",
              "type": "uint256"
            },
            {
              "internalType": "uint256",
              "name": "consentRevokedAt",
              "type": "uint256"
            },
            {
              "internalType": "uint256",
              "name": "dataRetentionExpiry",
              "type": "uint256"
            },
            {
              "internalType": "bool",
              "name": "isRetentionCompliant",
              "type": "bool"
            },
            {
              "internalType": "string",
              "name": "retentionPolicy",
              "type": "string"
            }
          ],
          "internalType": "struct ComplianceManager.ConsentLifecycle",
          "name": "",
          "type": "tuple"
        }
      ],
      "stateMutability": "view",
      "type": "function"
    },
    {
      "inputs": [],
      "name": "getContractStats",
      "outputs": [
        {
          "internalType": "uint256",
          "name": "totalComplianceRecords",
          "type": "uint256"
        },
        {
          "internalType": "uint256",
          "name": "totalResidencyRecords",
          "type": "uint256"
        },
        {
          "internalType": "uint256",
          "name": "totalReports",
          "type": "uint256"
        },
        {
          "internalType": "uint256",
          "name": "totalLifecycles",
          "type": "uint256"
        }
      ],
      "stateMutability": "view",
      "type": "function"
    },
    {
      "inputs": [
        {
          "internalType": "string",
          "name": "dataHash",
          "type": "string"
        }
      ],
      "name": "getDataResidency",
      "outputs": [
        {
          "components": [
            {
              "internalType": "string",
              "name": "dataHash",
              "type": "string"
            },
            {
              "internalType": "string",
              "name": "region",
              "type": "string"
            },
            {
              "internalType": "string",
              "name": "jurisdiction",
              "type": "string"
            },
            {
              "internalType": "uint256",
              "name": "timestamp",
              "type": "uint256"
            },
            {
              "internalType": "bool",
              "name": "isCompliant",
              "type": "bool"
            },
            {
              "internalType": "string",
              "name": "complianceDetails",
              "type": "string"
            }
          ],
          "internalType": "struct ComplianceManager.DataResidency",
          "name": "",
          "type": "tuple"
        }
      ],
      "stateMutability": "view",
      "type": "function"
    },
    {
      "inputs": [
        {
          "internalType": "string",
          "name": "regulation",
          "type": "string"
        }
      ],
      "name": "getRegulationReports",
      "outputs": [
        {
          "internalType": "uint256[]",
          "name": "",
          "type": "uint256[]"
        }
      ],
      "stateMutability": "view",
      "type": "function"
    },
    {
      "inputs": [
        {
          "internalType": "string",
          "name": "reportId",
          "type": "string"
        }
      ],
      "name": "getRegulatoryReport",
      "outputs": [
        {
          "components": [
            {
              "internalType": "string",
              "name": "reportId",
              "type": "string"
            },
            {
              "internalType": "string",
              "name": "regulation",
              "type": "string"
            },
            {
              "internalType": "string",
              "name": "reportType",
              "type": "string"
            },
            {
              "internalType": "uint256",
              "name": "timestamp",
              "type": "uint256"
            },
            {
              "internalType": "string",
              "name": "reportHash",
              "type": "string"
            },
            {
              "internalType": "bool",
              "name": "isSubmitted",
              "type": "bool"
            },
            {
              "internalType": "address",
              "name": "submittedBy",
              "type": "address"
            }
          ],
          "internalType": "struct ComplianceManager.RegulatoryReport",
          "name": "",
          "type": "tuple"
        }
      ],
      "stateMutability": "view",
      "type": "function"
    },
    {
      "inputs": [
        {
          "internalType": "string",
          "name": "dataType",
          "type": "string"
        }
      ],
      "name": "getRetentionPolicy",
      "outputs": [
        {
          "internalType": "uint256",
          "name": "",
          "type": "uint256"
        }
      ],
      "stateMutability": "view",
      "type": "function"
    },
    {
      "inputs": [
        {
          "internalType": "address",
          "name": "userAddress",
          "type": "address"
        }
      ],
      "name": "getUserComplianceRecords",
      "outputs": [
        {
          "internalType": "uint256[]",
          "name": "",
          "type": "uint256[]"
        }
      ],
      "stateMutability": "view",
      "type": "function"
    },
    {
      "inputs": [
        {
          "internalType": "string",
          "name": "",
          "type": "string"
        }
      ],
      "name": "hashToResidencyId",
      "outputs": [
        {
          "internalType": "uint256",
          "name": "",
          "type": "uint256"
        }
      ],
      "stateMutability": "view",
      "type": "function"
    },
    {
      "inputs": [
        {
          "internalType": "string",
          "name": "regulation",
          "type": "string"
        }
      ],
      "name": "isRegulationSupported",
      "outputs": [
        {
          "internalType": "bool",
          "name": "",
          "type": "bool"
        }
      ],
      "stateMutability": "view",
      "type": "function"
    },
    {
      "inputs": [
        {
          "internalType": "address",
          "name": "userAddress",
          "type": "address"
        },
        {
          "internalType": "string",
          "name": "regulation",
          "type": "string"
        }
      ],
      "name": "isUserCompliant",
      "outputs": [
        {
          "internalType": "bool",
          "name": "",
          "type": "bool"
        }
      ],
      "stateMutability": "view",
      "type": "function"
    },
    {
      "inputs": [],
      "name": "owner",
      "outputs": [
        {
          "internalType": "address",
          "name": "",
          "type": "address"
        }
      ],
      "stateMutability": "view",
      "type": "function"
    },
    {
      "inputs": [
        {
          "internalType": "address",
          "name": "userAddress",
          "type": "address"
        },
        {
          "internalType": "string",
          "name": "regulation",
          "type": "string"
        },
        {
          "internalType": "string",
          "name": "complianceType",
          "type": "string"
        },
        {
          "internalType": "bool",
          "name": "isCompliant",
          "type": "bool"
        },
        {
          "internalType": "string",
          "name": "details",
          "type": "string"
        },
        {
          "internalType": "string",
          "name": "region",
          "type": "string"
        },
        {
          "internalType": "uint256",
          "name": "durationInSeconds",
          "type": "uint256"
        }
      ],
      "name": "recordCompliance",
      "outputs": [],
      "stateMutability": "nonpayable",
      "type": "function"
    },
    {
      "inputs": [
        {
          "internalType": "address",
          "name": "userAddress",
          "type": "address"
        },
        {
          "internalType": "string",
          "name": "dataHash",
          "type": "string"
        },
        {
          "internalType": "uint256",
          "name": "consentGrantedAt",
          "type": "uint256"
        },
        {
          "internalType": "string",
          "name": "dataType",
          "type": "string"
        }
      ],
      "name": "recordConsentLifecycle",
      "outputs": [],
      "stateMutability": "nonpayable",
      "type": "function"
    },
    {
      "inputs": [
        {
          "internalType": "string",
          "name": "dataHash",
          "type": "string"
        },
        {
          "internalType": "string",
          "name": "region",
          "type": "string"
        },
        {
          "internalType": "string",
          "name": "jurisdiction",
          "type": "string"
        },
        {
          "internalType": "bool",
          "name": "isCompliant",
          "type": "bool"
        },
        {
          "internalType": "string",
          "name": "complianceDetails",
          "type": "string"
        }
      ],
      "name": "recordDataResidency",
      "outputs": [],
      "stateMutability": "nonpayable",
      "type": "function"
    },
    {
      "inputs": [
        {
          "internalType": "string",
          "name": "",
          "type": "string"
        },
        {
          "internalType": "uint256",
          "name": "",
          "type": "uint256"
        }
      ],
      "name": "regulationReports",
      "outputs": [
        {
          "internalType": "uint256",
          "name": "",
          "type": "uint256"
        }
      ],
      "stateMutability": "view",
      "type": "function"
    },
    {
      "inputs": [
        {
          "internalType": "uint256",
          "name": "",
          "type": "uint256"
        }
      ],
      "name": "regulatoryReports",
      "outputs": [
        {
          "internalType": "string",
          "name": "reportId",
          "type": "string"
        },
        {
          "internalType": "string",
          "name": "regulation",
          "type": "string"
        },
        {
          "internalType": "string",
          "name": "reportType",
          "type": "string"
        },
        {
          "internalType": "uint256",
          "name": "timestamp",
          "type": "uint256"
        },
        {
          "internalType": "string",
          "name": "reportHash",
          "type": "string"
        },
        {
          "internalType": "bool",
          "name": "isSubmitted",
          "type": "bool"
        },
        {
          "internalType": "address",
          "name": "submittedBy",
          "type": "address"
        }
      ],
      "stateMutability": "view",
      "type": "function"
    },
    {
      "inputs": [],
      "name": "renounceOwnership",
      "outputs": [],
      "stateMutability": "nonpayable",
      "type": "function"
    },
    {
      "inputs": [
        {
          "internalType": "string",
          "name": "",
          "type": "string"
        }
      ],
      "name": "reportIdToReport",
      "outputs": [
        {
          "internalType": "uint256",
          "name": "",
          "type": "uint256"
        }
      ],
      "stateMutability": "view",
      "type": "function"
    },
    {
      "inputs": [
        {
          "internalType": "string",
          "name": "",
          "type": "string"
        }
      ],
      "name": "retentionPolicies",
      "outputs": [
        {
          "internalType": "uint256",
          "name": "",
          "type": "uint256"
        }
      ],
      "stateMutability": "view",
      "type": "function"
    },
    {
      "inputs": [
        {
          "internalType": "string",
          "name": "regulation",
          "type": "string"
        },
        {
          "internalType": "bool",
          "name": "isSupported",
          "type": "bool"
        }
      ],
      "name": "setRegulationSupport",
      "outputs": [],
      "stateMutability": "nonpayable",
      "type": "function"
    },
    {
      "inputs": [
        {
          "internalType": "string",
          "name": "",
          "type": "string"
        }
      ],
      "name": "supportedRegulations",
      "outputs": [
        {
          "internalType": "bool",
          "name": "",
          "type": "bool"
        }
      ],
      "stateMutability": "view",
      "type": "function"
    },
    {
      "inputs": [
        {
          "internalType": "address",
          "name": "newOwner",
          "type": "address"
        }
      ],
      "name": "transferOwnership",
      "outputs": [],
      "stateMutability": "nonpayable",
      "type": "function"
    },
    {
      "inputs": [
        {
          "internalType": "string",
          "name": "dataType",
          "type": "string"
        },
        {
          "internalType": "uint256",
          "name": "retentionPeriodInSeconds",
          "type": "uint256"
        }
      ],
      "name": "updateRetentionPolicy",
      "outputs": [],
      "stateMutability": "nonpayable",
      "type": "function"
    },
    {
      "inputs": [
        {
          "internalType": "address",
          "name": "",
          "type": "address"
        },
        {
          "internalType": "uint256",
          "name": "",
          "type": "uint256"
        }
      ],
      "name": "userComplianceRecords",
      "outputs": [
        {
          "internalType": "uint256",
          "name": "",
          "type": "uint256"
        }
      ],
      "stateMutability": "view",
      "type": "function"
    },
    {
      "inputs": [
        {
          "internalType": "address",
          "name": "",
          "type": "address"
        },
        {
          "internalType": "string",
          "name": "",
          "type": "string"
        }
      ],
      "name": "userRegulationCompliance",
      "outputs": [
        {
          "internalType": "bool",
          "name": "",
          "type": "bool"
        }
      ],
      "stateMutability": "view",
      "type": "function"
    }
  ],
  "bytecode": "0x60806040523480156200001157600080fd5b506200001d33620001c3565b6001805562000030600280546001019055565b6200003f600380546001019055565b6200004e600480546001019055565b6200005d600580546001019055565b6001600f60405162000079906323a2282960e11b815260040190565b90815260408051918290036020018220805493151560ff19948516179055630445044560e41b8252600f600480840182905282519384900360249081018520805487166001908117909155634343504160e01b8652858301849052845195869003820186208054881682179055631311d41160e21b86529185019290925282519384900390910183208054909416179092556c706572736f6e616c5f6461746160981b81526010600d8201819052825191829003602d0182206301e1338090556d66696e616e6369616c5f6461746160901b8252600e8201819052825191829003602e018220630d28688090556f7472616e73616374696f6e5f6461746160801b82528181018190528251918290036030018220630966018090556b636f6e73656e745f6461746160a01b8252600c820152905190819003602c0190206312cc0300905562000213565b600080546001600160a01b038381166001600160a01b0319831681178455604051919092169283917f8be0079c531659141344cd1fd0a4f28419497f9722a3daafe3b4186f6b6457e09190a35050565b61381f80620002236000396000f3fe608060405234801561001057600080fd5b50600436106101da5760003560e01c80638da5cb5b11610104578063ce75936a116100a2578063f01c239011610071578063f01c239014610513578063f2fde38b14610533578063f4421e7c14610546578063fd6300c71461055957600080fd5b8063ce75936a146104b2578063dfe6b5d6146104c5578063dfeeef0a146104ed578063ec1b706b1461050057600080fd5b8063bcc29bc4116100de578063bcc29bc414610459578063c029cb701461046c578063c42f97c81461047f578063cc0b5da61461049f57600080fd5b80638da5cb5b146104005780638f398f711461041b5780639fdc44611461044657600080fd5b80635025e7e21161017c5780636fc6e13e1161014b5780636fc6e13e1461037f578063715018a61461039f5780637f9a0525146103a75780638b5e84d2146103d557600080fd5b80635025e7e2146102ee578063504108211461031457806354fb6fdf1461033457806366d7084f1461035f57600080fd5b8063360c5cc3116101b8578063360c5cc31461027a57806348a5ac291461028d5780634c01024e146102a25780634e7161bf146102c957600080fd5b80631251d657146101df57806318e5be6d146102335780631a130ceb14610259575b600080fd5b61021e6101ed366004612bd0565b600b602090815260009283526040909220815180830184018051928152908401929093019190912091525460ff1681565b60405190151581526020015b60405180910390f35b610246610241366004612c1e565b61056c565b60405161022a9796959493929190612c87565b61026c610267366004612ce5565b6106c9565b60405190815260200161022a565b61021e610288366004612d0f565b6106fa565b6102a061029b366004612d4c565b610725565b005b6102b56102b0366004612c1e565b610840565b60405161022a989796959493929190612d91565b6102dc6102d7366004612c1e565b610ab3565b60405161022a96959493929190612e16565b6103016102fc366004612c1e565b610d0f565b60405161022a9796959493929190612e7e565b610327610322366004612d0f565b610f77565b60405161022a9190612ef6565b61026c610342366004612d0f565b8051602081830181018051600c8252928201919093012091525481565b61037261036d366004612c1e565b6112be565b60405161022a9190612fa7565b61039261038d36600461306e565b611615565b60405161022a9190613090565b6102a0611681565b61021e6103b5366004612d0f565b8051602081830181018051600f8252928201919093012091525460ff1681565b61026c6103e3366004612d0f565b805160208183018101805160108252928201919093012091525481565b6000546040516001600160a01b03909116815260200161022a565b61026c610429366004612d0f565b8051602081830181018051600d8252928201919093012091525481565b6102a06104543660046130d4565b611695565b61026c610467366004612d0f565b611a23565b61039261047a366004612d0f565b611a4b565b61049261048d366004612d0f565b611ab9565b60405161022a9190613181565b6102a06104ad366004613225565b611dec565b61021e6104c0366004612bd0565b611fcd565b6104cd61200f565b60408051948552602085019390935291830152606082015260800161022a565b6102a06104fb3660046132e3565b612077565b6102a061050e366004613331565b612135565b610526610521366004612c1e565b6123fc565b60405161022a9190613396565b6102a061054136600461306e565b612623565b61026c610554366004612d4c565b61269c565b6102a061056736600461340c565b6126c7565b600960205260009081526040902080546001820180546001600160a01b039092169291610598906134e4565b80601f01602080910402602001604051908101604052809291908181526020018280546105c4906134e4565b80156106115780601f106105e657610100808354040283529160200191610611565b820191906000526020600020905b8154815290600101906020018083116105f457829003601f168201915b50505060028401546003850154600486015460058701546006880180549798949793965091945060ff169291610646906134e4565b80601f0160208091040260200160405190810160405280929190818152602001828054610672906134e4565b80156106bf5780601f10610694576101008083540402835291602001916106bf565b820191906000526020600020905b8154815290600101906020018083116106a257829003601f168201915b5050505050905087565b600a60205281600052604060002081815481106106e557600080fd5b90600052602060002001600091509150505481565b6000600f8260405161070c9190613518565b9081526040519081900360200190205460ff1692915050565b61072d612a0e565b60008251116107835760405162461bcd60e51b815260206004820152601960248201527f4461746120747970652063616e6e6f7420626520656d7074790000000000000060448201526064015b60405180910390fd5b600081116107dd5760405162461bcd60e51b815260206004820152602160248201527f526574656e74696f6e20706572696f64206d75737420626520706f73697469766044820152606560f81b606482015260840161077a565b806010836040516107ee9190613518565b9081526040519081900360200181209190915533907f0ebbe990c6a76cd2b3fb51e8c4b4bf586b0f636e900dfb43efb712e45d286e759061083490859085904290613534565b60405180910390a25050565b600660205260009081526040902080546001820180546001600160a01b03909216929161086c906134e4565b80601f0160208091040260200160405190810160405280929190818152602001828054610898906134e4565b80156108e55780601f106108ba576101008083540402835291602001916108e5565b820191906000526020600020905b8154815290600101906020018083116108c857829003601f168201915b5050505050908060020180546108fa906134e4565b80601f0160208091040260200160405190810160405280929190818152602001828054610926906134e4565b80156109735780601f1061094857610100808354040283529160200191610973565b820191906000526020600020905b81548152906001019060200180831161095657829003601f168201915b50505050600383015460048401546005850180549495929460ff90921693509061099c906134e4565b80601f01602080910402602001604051908101604052809291908181526020018280546109c8906134e4565b8015610a155780601f106109ea57610100808354040283529160200191610a15565b820191906000526020600020905b8154815290600101906020018083116109f857829003601f168201915b505050505090806006018054610a2a906134e4565b80601f0160208091040260200160405190810160405280929190818152602001828054610a56906134e4565b8015610aa35780601f10610a7857610100808354040283529160200191610aa3565b820191906000526020600020905b815481529060010190602001808311610a8657829003601f168201915b5050505050908060070154905088565b600760205260009081526040902080548190610ace906134e4565b80601f0160208091040260200160405190810160405280929190818152602001828054610afa906134e4565b8015610b475780601f10610b1c57610100808354040283529160200191610b47565b820191906000526020600020905b815481529060010190602001808311610b2a57829003601f168201915b505050505090806001018054610b5c906134e4565b80601f0160208091040260200160405190810160405280929190818152602001828054610b88906134e4565b8015610bd55780601f10610baa57610100808354040283529160200191610bd5565b820191906000526020600020905b815481529060010190602001808311610bb857829003601f168201915b505050505090806002018054610bea906134e4565b80601f0160208091040260200160405190810160405280929190818152602001828054610c16906134e4565b8015610c635780601f10610c3857610100808354040283529160200191610c63565b820191906000526020600020905b815481529060010190602001808311610c4657829003601f168201915b50505050600383015460048401546005850180549495929460ff909216935090610c8c906134e4565b80601f0160208091040260200160405190810160405280929190818152602001828054610cb8906134e4565b8015610d055780601f10610cda57610100808354040283529160200191610d05565b820191906000526020600020905b815481529060010190602001808311610ce857829003601f168201915b5050505050905086565b600860205260009081526040902080548190610d2a906134e4565b80601f0160208091040260200160405190810160405280929190818152602001828054610d56906134e4565b8015610da35780601f10610d7857610100808354040283529160200191610da3565b820191906000526020600020905b815481529060010190602001808311610d8657829003601f168201915b505050505090806001018054610db8906134e4565b80601f0160208091040260200160405190810160405280929190818152602001828054610de4906134e4565b8015610e315780601f10610e0657610100808354040283529160200191610e31565b820191906000526020600020905b815481529060010190602001808311610e1457829003601f168201915b505050505090806002018054610e46906134e4565b80601f0160208091040260200160405190810160405280929190818152602001828054610e72906134e4565b8015610ebf5780601f10610e9457610100808354040283529160200191610ebf565b820191906000526020600020905b815481529060010190602001808311610ea257829003601f168201915b505050505090806003015490806004018054610eda906134e4565b80601f0160208091040260200160405190810160405280929190818152602001828054610f06906134e4565b8015610f535780601f10610f2857610100808354040283529160200191610f53565b820191906000526020600020905b815481529060010190602001808311610f3657829003601f168201915b5050506005909301549192505060ff8116906001600160a01b036101009091041687565b610fc26040518060e00160405280606081526020016060815260200160608152602001600081526020016060815260200160001515815260200160006001600160a01b031681525090565b6000600d83604051610fd49190613518565b9081526020016040518091039020549050600081116110285760405162461bcd60e51b815260206004820152601060248201526f14995c1bdc9d081b9bdd08199bdd5b9960821b604482015260640161077a565b60008181526008602052604090819020815160e08101909252805482908290611050906134e4565b80601f016020809104026020016040519081016040528092919081815260200182805461107c906134e4565b80156110c95780601f1061109e576101008083540402835291602001916110c9565b820191906000526020600020905b8154815290600101906020018083116110ac57829003601f168201915b505050505081526020016001820180546110e2906134e4565b80601f016020809104026020016040519081016040528092919081815260200182805461110e906134e4565b801561115b5780601f106111305761010080835404028352916020019161115b565b820191906000526020600020905b81548152906001019060200180831161113e57829003601f168201915b50505050508152602001600282018054611174906134e4565b80601f01602080910402602001604051908101604052809291908181526020018280546111a0906134e4565b80156111ed5780601f106111c2576101008083540402835291602001916111ed565b820191906000526020600020905b8154815290600101906020018083116111d057829003601f168201915b5050505050815260200160038201548152602001600482018054611210906134e4565b80601f016020809104026020016040519081016040528092919081815260200182805461123c906134e4565b80156112895780601f1061125e57610100808354040283529160200191611289565b820191906000526020600020905b81548152906001019060200180831161126c57829003601f168201915b50505091835250506005919091015460ff81161515602083015261010090046001600160a01b03166040909101529392505050565b61131160405180610100016040528060006001600160a01b031681526020016060815260200160608152602001600081526020016000151581526020016060815260200160608152602001600081525090565b8160008111801561132457506002548111155b6113705760405162461bcd60e51b815260206004820152601c60248201527f496e76616c696420636f6d706c69616e6365207265636f726420494400000000604482015260640161077a565b6000838152600660209081526040918290208251610100810190935280546001600160a01b0316835260018101805491928401916113ad906134e4565b80601f01602080910402602001604051908101604052809291908181526020018280546113d9906134e4565b80156114265780601f106113fb57610100808354040283529160200191611426565b820191906000526020600020905b81548152906001019060200180831161140957829003601f168201915b5050505050815260200160028201805461143f906134e4565b80601f016020809104026020016040519081016040528092919081815260200182805461146b906134e4565b80156114b85780601f1061148d576101008083540402835291602001916114b8565b820191906000526020600020905b81548152906001019060200180831161149b57829003601f168201915b505050918352505060038201546020820152600482015460ff16151560408201526005820180546060909201916114ee906134e4565b80601f016020809104026020016040519081016040528092919081815260200182805461151a906134e4565b80156115675780601f1061153c57610100808354040283529160200191611567565b820191906000526020600020905b81548152906001019060200180831161154a57829003601f168201915b50505050508152602001600682018054611580906134e4565b80601f01602080910402602001604051908101604052809291908181526020018280546115ac906134e4565b80156115f95780601f106115ce576101008083540402835291602001916115f9565b820191906000526020600020905b8154815290600101906020018083116115dc57829003601f168201915b5050505050815260200160078201548152505091505b50919050565b6001600160a01b0381166000908152600a602090815260409182902080548351818402810184019094528084526060939283018282801561167557602002820191906000526020600020905b815481526020019060010190808311611661575b50505050509050919050565b611689612a0e565b6116936000612a68565b565b61169d612a0e565b82600f816040516116ae9190613518565b9081526040519081900360200190205460ff166117085760405162461bcd60e51b8152602060048201526018602482015277149959dd5b185d1a5bdb881b9bdd081cdd5c1c1bdc9d195960421b604482015260640161077a565b611710612ab8565b60008551116117615760405162461bcd60e51b815260206004820152601960248201527f5265706f72742049442063616e6e6f7420626520656d70747900000000000000604482015260640161077a565b60008351116117b25760405162461bcd60e51b815260206004820152601b60248201527f5265706f727420747970652063616e6e6f7420626520656d7074790000000000604482015260640161077a565b60008251116118035760405162461bcd60e51b815260206004820152601b60248201527f5265706f727420686173682063616e6e6f7420626520656d7074790000000000604482015260640161077a565b600d856040516118139190613518565b9081526020016040518091039020546000146118715760405162461bcd60e51b815260206004820152601860248201527f5265706f727420494420616c7265616479206578697374730000000000000000604482015260640161077a565b600061187c60045490565b6040805160e081018252888152602080820189905281830188905242606083015260808201879052600160a08301523360c083015260008481526008909152919091208151929350909181906118d290826135a8565b50602082015160018201906118e790826135a8565b50604082015160028201906118fc90826135a8565b50606082015160038201556080820151600482019061191b90826135a8565b5060a08201516005909101805460c0909301516001600160a01b031661010002610100600160a81b0319921515929092166001600160a81b0319909316929092171790556040518190600d90611972908990613518565b908152602001604051809103902081905550600e856040516119949190613518565b90815260405190819003602090810190912080546001810182556000918252919020018190556119c8600480546001019055565b336001600160a01b0316817f30744e66e8e459635b7f7489257669ab20d548c4e2c113653e3627768feea7ff8888888842604051611a0a959493929190613668565b60405180910390a350611a1c60018055565b5050505050565b6000601082604051611a359190613518565b9081526020016040518091039020549050919050565b6060600e82604051611a5d9190613518565b908152604080519182900360209081018320805480830285018301909352828452919083018282801561167557602002820191906000526020600020908154815260200190600101908083116116615750505050509050919050565b611af46040518060c0016040528060608152602001606081526020016060815260200160008152602001600015158152602001606081525090565b6000600c83604051611b069190613518565b908152602001604051809103902054905060008111611b675760405162461bcd60e51b815260206004820152601960248201527f4e6f207265736964656e6379207265636f726420666f756e6400000000000000604482015260640161077a565b60008181526007602052604090819020815160c08101909252805482908290611b8f906134e4565b80601f0160208091040260200160405190810160405280929190818152602001828054611bbb906134e4565b8015611c085780601f10611bdd57610100808354040283529160200191611c08565b820191906000526020600020905b815481529060010190602001808311611beb57829003601f168201915b50505050508152602001600182018054611c21906134e4565b80601f0160208091040260200160405190810160405280929190818152602001828054611c4d906134e4565b8015611c9a5780601f10611c6f57610100808354040283529160200191611c9a565b820191906000526020600020905b815481529060010190602001808311611c7d57829003601f168201915b50505050508152602001600282018054611cb3906134e4565b80601f0160208091040260200160405190810160405280929190818152602001828054611cdf906134e4565b8015611d2c5780601f10611d0157610100808354040283529160200191611d2c565b820191906000526020600020905b815481529060010190602001808311611d0f57829003601f168201915b505050918352505060038201546020820152600482015460ff1615156040820152600582018054606090920191611d62906134e4565b80601f0160208091040260200160405190810160405280929190818152602001828054611d8e906134e4565b8015611ddb5780601f10611db057610100808354040283529160200191611ddb565b820191906000526020600020905b815481529060010190602001808311611dbe57829003601f168201915b505050505081525050915050919050565b611df4612a0e565b611dfc612ab8565b6000855111611e495760405162461bcd60e51b81526020600482015260196024820152784461746120686173682063616e6e6f7420626520656d70747960381b604482015260640161077a565b6000845111611e935760405162461bcd60e51b8152602060048201526016602482015275526567696f6e2063616e6e6f7420626520656d70747960501b604482015260640161077a565b6000611e9e60035490565b6040805160c0810182528881526020808201899052818301889052426060830152861515608083015260a082018690526000848152600790915291909120815192935090918190611eef90826135a8565b5060208201516001820190611f0490826135a8565b5060408201516002820190611f1990826135a8565b5060608201516003820155608082015160048201805460ff191691151591909117905560a08201516005820190611f5090826135a8565b5090505080600c87604051611f659190613518565b90815260405190819003602001902055611f83600380546001019055565b807f84f449fc456be5da954f9e8cc49873fffb624f176ec7c6456d670232d48bce678787878742604051611fbb9594939291906136c8565b60405180910390a250611a1c60018055565b6001600160a01b0382166000908152600b60205260408082209051611ff3908490613518565b9081526040519081900360200190205460ff1690505b92915050565b600080600080600161202060025490565b61202a919061372c565b600161203560035490565b61203f919061372c565b600161204a60045490565b612054919061372c565b600161205f60055490565b612069919061372c565b935093509350935090919293565b61207f612a0e565b60008251116120d05760405162461bcd60e51b815260206004820152601a60248201527f526567756c6174696f6e2063616e6e6f7420626520656d707479000000000000604482015260640161077a565b80600f836040516120e19190613518565b908152604051908190036020018120805492151560ff199093169290921790915533907f0261b18e0ca9a1ee7b3727acc750be0ec67b2a3691bb12ea61eeab70febb4d2d906108349085908590429061373f565b61213d612a0e565b612145612ab8565b6001600160a01b0384166121925760405162461bcd60e51b8152602060048201526014602482015273496e76616c69642075736572206164647265737360601b604482015260640161077a565b60008351116121df5760405162461bcd60e51b81526020600482015260196024820152784461746120686173682063616e6e6f7420626520656d70747960381b604482015260640161077a565b6000821161222f5760405162461bcd60e51b815260206004820152601960248201527f496e76616c696420636f6e73656e742074696d657374616d7000000000000000604482015260640161077a565b600061223a60055490565b9050600060108360405161224e9190613518565b9081526020016040518091039020549050600081116122b95760405162461bcd60e51b815260206004820152602160248201527f4e6f20726574656e74696f6e20706f6c69637920666f722064617461207479706044820152606560f81b606482015260840161077a565b6040518060e00160405280876001600160a01b031681526020018681526020018581526020016000815260200182866122f29190613764565b815260016020808301829052604092830187905260008681526009825292909220835181546001600160a01b0319166001600160a01b03909116178155918301519082019061234190826135a8565b5060408201516002820155606082015160038201556080820151600482015560a082015160058201805460ff191691151591909117905560c0820151600682019061238c90826135a8565b5050600580546001019055506001600160a01b038616827fe526fd9ae970869dabd32cb557b68a3999400bb6c33d91d69a3d962de7be08ec87876123d08682613764565b88426040516123e3959493929190613777565b60405180910390a350506123f660018055565b50505050565b6124476040518060e0016040528060006001600160a01b0316815260200160608152602001600081526020016000815260200160008152602001600015158152602001606081525090565b600082118015612458575060055482105b61249b5760405162461bcd60e51b8152602060048201526014602482015273125b9d985b1a59081b1a599958de58db1948125160621b604482015260640161077a565b600082815260096020908152604091829020825160e0810190935280546001600160a01b0316835260018101805491928401916124d7906134e4565b80601f0160208091040260200160405190810160405280929190818152602001828054612503906134e4565b80156125505780601f1061252557610100808354040283529160200191612550565b820191906000526020600020905b81548152906001019060200180831161253357829003601f168201915b5050509183525050600282015460208201526003820154604082015260048201546060820152600582015460ff161515608082015260068201805460a09092019161259a906134e4565b80601f01602080910402602001604051908101604052809291908181526020018280546125c6906134e4565b80156126135780601f106125e857610100808354040283529160200191612613565b820191906000526020600020905b8154815290600101906020018083116125f657829003601f168201915b5050505050815250509050919050565b61262b612a0e565b6001600160a01b0381166126905760405162461bcd60e51b815260206004820152602660248201527f4f776e61626c653a206e6577206f776e657220697320746865207a65726f206160448201526564647265737360d01b606482015260840161077a565b61269981612a68565b50565b8151602081840181018051600e8252928201918501919091209190528054829081106106e557600080fd5b6126cf612a0e565b85600f816040516126e09190613518565b9081526040519081900360200190205460ff1661273a5760405162461bcd60e51b8152602060048201526018602482015277149959dd5b185d1a5bdb881b9bdd081cdd5c1c1bdc9d195960421b604482015260640161077a565b612742612ab8565b6001600160a01b03881661278f5760405162461bcd60e51b8152602060048201526014602482015273496e76616c69642075736572206164647265737360601b604482015260640161077a565b60008651116127e05760405162461bcd60e51b815260206004820152601f60248201527f436f6d706c69616e636520747970652063616e6e6f7420626520656d70747900604482015260640161077a565b600082116128305760405162461bcd60e51b815260206004820152601960248201527f4475726174696f6e206d75737420626520706f73697469766500000000000000604482015260640161077a565b600061283b60025490565b90506040518061010001604052808a6001600160a01b031681526020018981526020018881526020014281526020018715158152602001868152602001858152602001844261288a9190613764565b90526000828152600660209081526040909120825181546001600160a01b0319166001600160a01b039091161781559082015160018201906128cc90826135a8565b50604082015160028201906128e190826135a8565b5060608201516003820155608082015160048201805460ff191691151591909117905560a0820151600582019061291890826135a8565b5060c0820151600682019061292d90826135a8565b5060e091909101516007909101556001600160a01b0389166000818152600a60209081526040808320805460018101825590845282842001859055928252600b90528190209051879190612982908b90613518565b908152604051908190036020019020805491151560ff199092169190911790556129b0600280546001019055565b886001600160a01b0316817f1cac8b17c71b34310b869cd22545090fe3f5abccfcf58f995ab6730a7daa366e8a8a8a89426040516129f29594939291906137a8565b60405180910390a350612a0460018055565b5050505050505050565b6000546001600160a01b031633146116935760405162461bcd60e51b815260206004820181905260248201527f4f776e61626c653a2063616c6c6572206973206e6f7420746865206f776e6572604482015260640161077a565b600080546001600160a01b038381166001600160a01b0319831681178455604051919092169283917f8be0079c531659141344cd1fd0a4f28419497f9722a3daafe3b4186f6b6457e09190a35050565b600260015403612b0a5760405162461bcd60e51b815260206004820152601f60248201527f5265656e7472616e637947756172643a207265656e7472616e742063616c6c00604482015260640161077a565b6002600155565b80356001600160a01b0381168114612b2857600080fd5b919050565b634e487b7160e01b600052604160045260246000fd5b600082601f830112612b5457600080fd5b813567ffffffffffffffff80821115612b6f57612b6f612b2d565b604051601f8301601f19908116603f01168101908282118183101715612b9757612b97612b2d565b81604052838152866020858801011115612bb057600080fd5b836020870160208301376000602085830101528094505050505092915050565b60008060408385031215612be357600080fd5b612bec83612b11565b9150602083013567ffffffffffffffff811115612c0857600080fd5b612c1485828601612b43565b9150509250929050565b600060208284031215612c3057600080fd5b5035919050565b60005b83811015612c52578181015183820152602001612c3a565b50506000910152565b60008151808452612c73816020860160208601612c37565b601f01601f19169290920160200192915050565b6001600160a01b038816815260e060208201819052600090612cab90830189612c5b565b87604084015286606084015285608084015284151560a084015282810360c0840152612cd78185612c5b565b9a9950505050505050505050565b60008060408385031215612cf857600080fd5b612d0183612b11565b946020939093013593505050565b600060208284031215612d2157600080fd5b813567ffffffffffffffff811115612d3857600080fd5b612d4484828501612b43565b949350505050565b60008060408385031215612d5f57600080fd5b823567ffffffffffffffff811115612d7657600080fd5b612d8285828601612b43565b95602094909401359450505050565b6001600160a01b038916815261010060208201819052600090612db68382018b612c5b565b90508281036040840152612dca818a612c5b565b9050876060840152861515608084015282810360a0840152612dec8187612c5b565b905082810360c0840152612e008186612c5b565b9150508260e08301529998505050505050505050565b60c081526000612e2960c0830189612c5b565b8281036020840152612e3b8189612c5b565b90508281036040840152612e4f8188612c5b565b9050856060840152841515608084015282810360a0840152612e718185612c5b565b9998505050505050505050565b60e081526000612e9160e083018a612c5b565b8281036020840152612ea3818a612c5b565b90508281036040840152612eb78189612c5b565b90508660608401528281036080840152612ed18187612c5b565b94151560a084015250506001600160a01b039190911660c09091015295945050505050565b602081526000825160e06020840152612f13610100840182612c5b565b90506020840151601f1980858403016040860152612f318383612c5b565b92506040860151915080858403016060860152612f4e8383612c5b565b92506060860151608086015260808601519150808584030160a086015250612f768282612c5b565b91505060a0840151151560c084015260c0840151612f9f60e08501826001600160a01b03169052565b509392505050565b60208152612fc16020820183516001600160a01b03169052565b60006020830151610100806040850152612fdf610120850183612c5b565b91506040850151601f1980868503016060870152612ffd8483612c5b565b9350606087015160808701526080870151915061301e60a087018315159052565b60a08701519150808685030160c08701526130398483612c5b565b935060c08701519150808685030160e0870152506130578382612c5b565b92505060e085015181850152508091505092915050565b60006020828403121561308057600080fd5b61308982612b11565b9392505050565b6020808252825182820181905260009190848201906040850190845b818110156130c8578351835292840192918401916001016130ac565b50909695505050505050565b600080600080608085870312156130ea57600080fd5b843567ffffffffffffffff8082111561310257600080fd5b61310e88838901612b43565b9550602087013591508082111561312457600080fd5b61313088838901612b43565b9450604087013591508082111561314657600080fd5b61315288838901612b43565b9350606087013591508082111561316857600080fd5b5061317587828801612b43565b91505092959194509250565b602081526000825160c0602084015261319d60e0840182612c5b565b90506020840151601f19808584030160408601526131bb8383612c5b565b925060408601519150808584030160608601526131d88383612c5b565b9250606086015160808601526080860151151560a086015260a08601519150808584030160c08601525061320c8282612c5b565b95945050505050565b80358015158114612b2857600080fd5b600080600080600060a0868803121561323d57600080fd5b853567ffffffffffffffff8082111561325557600080fd5b61326189838a01612b43565b9650602088013591508082111561327757600080fd5b61328389838a01612b43565b9550604088013591508082111561329957600080fd5b6132a589838a01612b43565b94506132b360608901613215565b935060808801359150808211156132c957600080fd5b506132d688828901612b43565b9150509295509295909350565b600080604083850312156132f657600080fd5b823567ffffffffffffffff81111561330d57600080fd5b61331985828601612b43565b92505061332860208401613215565b90509250929050565b6000806000806080858703121561334757600080fd5b61335085612b11565b9350602085013567ffffffffffffffff8082111561336d57600080fd5b61337988838901612b43565b945060408701359350606087013591508082111561316857600080fd5b602080825282516001600160a01b03168282015282015160e060408301526000906133c5610100840182612c5b565b90506040840151606084015260608401516080840152608084015160a084015260a0840151151560c084015260c0840151601f198483030160e085015261320c8282612c5b565b600080600080600080600060e0888a03121561342757600080fd5b61343088612b11565b9650602088013567ffffffffffffffff8082111561344d57600080fd5b6134598b838c01612b43565b975060408a013591508082111561346f57600080fd5b61347b8b838c01612b43565b965061348960608b01613215565b955060808a013591508082111561349f57600080fd5b6134ab8b838c01612b43565b945060a08a01359150808211156134c157600080fd5b506134ce8a828b01612b43565b92505060c0880135905092959891949750929550565b600181811c908216806134f857607f821691505b60208210810361160f57634e487b7160e01b600052602260045260246000fd5b6000825161352a818460208701612c37565b9190910192915050565b6060815260006135476060830186612c5b565b60208301949094525060400152919050565b601f8211156135a357600081815260208120601f850160051c810160208610156135805750805b601f850160051c820191505b8181101561359f5782815560010161358c565b5050505b505050565b815167ffffffffffffffff8111156135c2576135c2612b2d565b6135d6816135d084546134e4565b84613559565b602080601f83116001811461360b57600084156135f35750858301515b600019600386901b1c1916600185901b17855561359f565b600085815260208120601f198616915b8281101561363a5788860151825594840194600190910190840161361b565b50858210156136585787850151600019600388901b60f8161c191681555b5050505050600190811b01905550565b60a08152600061367b60a0830188612c5b565b828103602084015261368d8188612c5b565b905082810360408401526136a18187612c5b565b905082810360608401526136b58186612c5b565b9150508260808301529695505050505050565b60a0815260006136db60a0830188612c5b565b82810360208401526136ed8188612c5b565b905082810360408401526137018187612c5b565b94151560608401525050608001529392505050565b634e487b7160e01b600052601160045260246000fd5b8181038181111561200957612009613716565b6060815260006137526060830186612c5b565b93151560208301525060400152919050565b8082018082111561200957612009613716565b60a08152600061378a60a0830188612c5b565b86602084015285604084015282810360608401526136b58186612c5b565b60a0815260006137bb60a0830188612c5b565b82810360208401526137cd8188612c5b565b9050851515604084015282810360608401526136b58186612c5b56fea2646970667358221220ee782c8252a57d5ddc8b7c31925d44d7e65acbc6cd1d612c91b375256a83b7f664736f6c63430008130033",
  "linkReferences": {},
  "deployedLinkReferences": {}
}